:020000040800F2
:100000000020001099B20108D9AE0108DBAE01084A
:10001000E3AE0108E5AE0108E7AE0108000000000C
:10002000000000000000000000000000E9AE010830
:10003000EBAE010800000000912601088DE30008E6
:10004000D1B60108D5B60108D9B60108DDB6010858
:10005000E1B60108E5B60108E9B60108EDB6010808
:10006000F1B60108F5B60108F9B60108FDB60108B8
:1000700001B7010805B7010809B701080DB7010864
:1000800011B7010815B7010819B701081DB7010814
:1000900021B7010825B7010829B701082DB70108C4
:1000A00031B7010835B7010839B701083DB7010874
:1000B00041B7010845B7010849B701084DB7010824
:1000C00051B7010855B7010859B701085DB70108D4
:1000D00061B701088F6D010865B7010869B70108AC
:1000E0006DB7010871B7010875B7010879B7010844
:1000F0007DB7010881B7010885B7010889B70108F4
:100100008DB7010891B7010895B7010899B70108A3
:100110009DB70108A1B70108A7E50008BD6E010859
:10012000A5B70108A9B70108ADB70108B1B7010823
:10013000B5B70108B9B70108BDB70108C1B70108D3
:10014000C5B70108C9B70108CDB70108D1B7010883
:10015000D5B70108D9B70108DDB70108E1B7010833
:10016000E5B70108E9B70108EDB70108F1B70108E3
:10017000F5B70108F9B70108FDB7010801B8010892
:1001800005B8010809B8010880B5F0234FF4A07242
:100190000021002003F091FA0120DFF850130870CD
:1001A000DFF84C230421702003F0EAFA1A234FF4FD
:1001B000A0721921002003F0CBFC012003F058FEAF
:1001C000DFF830232321642003F0C0FB002003F07C
:1001D0004FFEDFF824234621642003F0B7FBC74A13
:1001E0006921642003F0B2FBC54A8C21642003F02E
:1001F000ADFBC44AAF21642003F0A8FBC24AD22160
:10020000642003F0A3FB01BD10B504F0B7F90400AE
:10021000E4B22000042806D0082815D00D2824D0E8
:100220000F2834D06AE00020B8490870AF48007841
:10023000022805DBAD480078401EAC49087002E09A
:100240000620AA49087059E00020B0490870A74864
:100250000078062805DAA5480078401CA3490870F4
:1002600002E00120A149087048E00020A749087079
:1002700001209E4908700020A54908700120A54969
:1002800008700120A449087004F0B8F92CE101209D
:100290009E49087095480078012809D02ED303287C
:1002A00018D00ED3052822D01DD3062823D025E050
:1002B00000209749087001209849087002F06DFAF3
:1002C0001CE000209249087002209449087002F056
:1002D0003AFB13E000208E49087003208F49087014
:1002E00002F0DCFB0AE004208C49087006E00520DF
:1002F0008A49087002E0062088490870834800781F
:10030000002840F0F1807948007801280CD0C0F036
:10031000EB80032852D02CD3052800F09C8072D3A8
:10032000062800F0BD80DFE0012003F0A1FD714A46
:100330002321642003F00AFB002003F099FD6E4A9C
:100340004621642003F002FB6C4A6921642003F01B
:10035000FDFA6B4A8C21642003F0F8FA694AAF2158
:10036000642003F0F3FA684AD221642003F0EEFA25
:10037000BAE0604A2321642003F0E8FA012003F088
:1003800077FD5D4A4621642003F0E0FA002003F087
:100390006FFD5A4A6921642003F0D8FA584A8C212B
:1003A000642003F0D3FA574AAF21642003F0CEFA59
:1003B000554AD221642003F0C9FA95E04D4A232121
:1003C000642003F0C3FA4C4A4621642003F0BEFACD
:1003D000012003F04DFD494A6921642003F0B6FA7B
:1003E000002003F045FD464A8C21642003F0AEFA5C
:1003F000444AAF21642003F0A9FA434AD221642081
:1004000003F0A4FA70E03B4A2321642003F09EFA33
:10041000002003F02DFD384A4621642003F096FAAF
:10042000364A6921642003F091FA012003F020FD8F
:10043000334A8C21642003F089FA002003F018FD70
:10044000304AAF21642003F081FA2F4AD221642080
:1004500003F07CFA48E0274A2321642003F076FA6F
:10046000254A4621642003F071FA244A6921642058
:1004700003F06CFA224A8C21642003F067FA012011
:1004800003F0F6FC1F4AAF21642003F05FFA00205E
:1004900003F0EEFC1C4AD221642003F057FA23E05B
:1004A000144A2321642003F051FA134A46216420A0
:1004B00003F04CFA114A6921642003F047FA104A0C
:1004C0008C21642003F042FA0E4AAF21642003F02D
:1004D0003DFA012003F0CCFC0B4AD221642003F04A
:1004E00035FA002003F0C4FC10BD0000FF0200201C
:1004F000E4B20108F0B20108FCB2010808B3010837
:1005000098B10108A8B1010814B3010842470020BE
:10051000394700200A0300203E47002040470020C2
:1005200030B5ABB004F02AF80400E4B20D2C40F072
:10053000A78022A8DFF8E41D202204F0DFFB0120C1
:10054000DFF8DC1D08700020DFF8D81D08700020DF
:10055000DFF8D41D0870F0234FF4A07200210020B2
:1005600003F0ABF8DFF8C42D0421702003F008F984
:100570001A234FF4A0721921002003F0E9FADFF8E2
:10058000B00D0078002879D002A8802104F0E6FBA5
:100590000025EDB2042D5BDA0020DFF8981DEDB2E6
:1005A0004855DFF8940DEDB22C2101FB05F1002236
:1005B0004250DFF8880DEDB200EBC500B0F8E00066
:1005C00004F0DAFB02AAEDB26B011A44C2E90001A1
:1005D000DFF8680DEDB200EBC500B0F8E20004F002
:1005E000CBFB02AAEDB26B011A44C2E90201DFF8AB
:1005F0004C0DEDB200EBC500B0F8E40004F0BCFB1C
:1006000002AAEDB26B011A44C2E90401DFF82C0D15
:10061000EDB200EBC500B0F8E60004F0ADFB02AAB5
:10062000EDB26B011A44C2E90601DFF8100DEDB21C
:10063000382101FB05F1084400900423042202A89C
:10064000EDB26901014422A804F095FE6D1CA0E7FB
:10065000A022DFF8E81C4FF4007004F0B2FF002085
:10066000DFF8CC1C08700020DFF8C41D0870A02241
:10067000DFF8C01D4FF4007004F0CFFF02F08BB81C
:10068000DFF8A40C0078012808D0C2F08480032889
:1006900001F0D380C0F06B8502F07DB8E4B20C2C81
:1006A00011D1DFF8940D0078022807DBDFF8880D00
:1006B0000078401EDFF8801D087018E00820DFF881
:1006C000781D087013E0E4B2102C10D1DFF8680D2B
:1006D0000078082807DADFF8600D0078401CDFF8A2
:1006E000581D087003E00120DFF84C1D0870DFF88A
:1006F000480D0078012815D0C0F03785032800F098
:100700002B81C0F09C80052800F05B82C0F0B08196
:10071000072800F00D84C0F0FD82082800F09084C6
:1007200000F023BDE4B2042C11D1DFF8100D4079A4
:10073000002807D0DFF8040D4079401EDFF8FC1CCC
:10074000487118E00020DFF8F41C487113E0E4B2AF
:10075000082C10D1DFF8E40C4079172807DADFF80D
:10076000DC0C4079401CDFF8D41C487103E01720F2
:10077000DFF8C81C4871DFF8C40C4279DFF8C01CF0
:10078000684604F0A7FF012003F072FB6A46592176
:10079000742003F0DBF8002003F06AFBDFF89C0C08
:1007A0008279DFF89C1C684604F094FF6A46592160
:1007B0009C2003F0CBF8DFF8840CC279DFF8801CB2
:1007C000684604F087FF6A465921C42003F0BEF84A
:1007D000DFF8680C008810F5FA62DFF8381E68460A
:1007E00004F078FF6A469521742003F0AFF8DFF833
:1007F0004C0C8278DFF8481C684604F06BFF6A46B0
:100800009521AC2003F0A2F8DFF8300CC278DFF8B5
:10081000301C684604F05EFF6A469521D42003F040
:1008200095F8DFF8F42DC821502003F08FF8DFF899
:10083000EC2DC821BC2003F089F800F096BCE4B28E
:10084000042C11D1DFF8F40B8079002807D0DFF8F1
:10085000EC0B8079401EDFF8E41B887118E0002063
:10086000DFF8D81B887113E0E4B2082C10D1DFF850
:10087000CC0B80793B2807DADFF8C00B8079401C6D
:10088000DFF8B81B887103E03B20DFF8B01B8871EC
:10089000DFF8A80B4279DFF8A81B684604F01AFFBE
:1008A0006A465921742003F051F8DFF8900B8279E1
:1008B000DFF88C1B684604F00DFF012003F0D8FA26
:1008C0006A4659219C2003F041F8002003F0D0FA39
:1008D000DFF8680BC279DFF8681B684604F0FAFE9F
:1008E0006A465921C42003F031F8DFF8500B008824
:1008F00010F5FA62DFF81C1D684604F0EBFE6A464C
:100900009521742003F022F8DFF8300B8278DFF8AD
:10091000301B684604F0DEFE6A469521AC2003F0E9
:1009200015F8DFF8180BC278DFF8141B684604F0DE
:10093000D1FE6A469521D42003F008F8DFF8D82CC0
:10094000C821502003F002F8DFF8D02CC821BC20C9
:1009500002F0FCFF00F009BCE4B2042C11D1DFF876
:10096000DC0AC079002807D0DFF8D00AC079401E21
:10097000DFF8C81AC87118E00020DFF8C01AC87183
:1009800013E0E4B2082C10D1DFF8B00AC0793B289C
:1009900007DADFF8A80AC079401CDFF8A01AC8718E
:1009A00003E03B20DFF8941AC871DFF8900A42791F
:1009B000DFF88C1A684604F08DFE6A4659217420CF
:1009C00002F0C4FFDFF8740A8279DFF8741A68460F
:1009D00004F080FE6A4659219C2002F0B7FFDFF840
:1009E0005C0AC279DFF8581A684604F073FE0120E9
:1009F00003F03EFA6A465921C42002F0A7FF002006
:100A000003F036FADFF8340A008810F5FA62DFF8EE
:100A1000041C684604F05EFE6A469521742002F0CC
:100A200095FFDFF8180A8278DFF8141A684604F098
:100A300051FE6A469521AC2002F088FFDFF8FC09E0
:100A4000C278DFF8FC19684604F044FE6A46952136
:100A5000D42002F07BFFDFF8C02BC821502002F029
:100A600075FFDFF8B82BC821BC2002F06FFF7CE3D4
:100A7000E4B2042C11D1DFF8C4090088002807D0A3
:100A8000DFF8B8090088401EDFF8B019088018E0C8
:100A90000020DFF8A819088013E0E4B2082C10D178
:100AA000DFF898090088632807DADFF890090088E2
:100AB000401CDFF88819088003E06320DFF87C1908
:100AC0000880DFF878090088002817D0DFF86C0963
:100AD0000088042190FBF1F201FB120000280DD0E8
:100AE000DFF858098078022808D1DFF85009C0786B
:100AF0001D2803D11C20DFF84419C870DFF83C0919
:100B00004279DFF83C19684604F0E4FD6A46592151
:100B1000742002F01BFFDFF824098279DFF8201926
:100B2000684604F0D7FD6A4659219C2002F00EFF6A
:100B3000DFF80809C279DFF80819684604F0CAFD31
:100B40006A465921C42002F001FFDFF8F00800884E
:100B500010F5FA62DFF8BC1A684604F0BBFD01200C
:100B600003F086F96A469521742002F0EFFE00201A
:100B700003F07EF9DFF8C4088278DFF8C41868460D
:100B800004F0A8FD6A469521AC2002F0DFFEDFF8F4
:100B9000AC08C278DFF8A818684604F09BFD6A46E6
:100BA0009521D42002F0D2FEDFF86C2AC821502013
:100BB00002F0CCFEDFF8642AC821BC2002F0C6FE99
:100BC000D3E2E4B2042C11D1DFF870088078022857
:100BD00007DBDFF868088078401EDFF8601888704F
:100BE00018E00120DFF85418887013E0E4B2082CF4
:100BF00010D1DFF8480880780C2807DADFF83C08C5
:100C00008078401CDFF83418887003E00C20DFF88F
:100C10002C188870DFF824080088002817D0DFF827
:100C20001C080088042190FBF1F201FB120000284F
:100C30000DD0DFF808088078022808D1DFF8FC071B
:100C4000C0781D2803D11C20DFF8F017C870DFF82A
:100C5000EC074279DFF8E817684604F03BFD6A4686
:100C60005921742002F072FEDFF8D0078279DFF894
:100C7000D017684604F02EFD6A4659219C2002F0E8
:100C800065FEDFF8B807C279DFF8B417684604F0EC
:100C900021FD6A465921C42002F058FEDFF89C0766
:100CA000008810F5FA62DFF86C19684604F012FD4E
:100CB0006A469521742002F049FEDFF880078278A9
:100CC000DFF87C17684604F005FD012003F0D0F83A
:100CD0006A469521AC2002F039FE002003F0C8F8E6
:100CE000DFF85807C278DFF85817684604F0F2FCBE
:100CF0006A469521D42002F029FEDFF81C29C8217C
:100D0000502002F023FEDFF81429C821BC2002F095
:100D10001DFE2AE2E4B2042C11D1DFF82007C078CE
:100D2000022807DBDFF81407C078401EDFF80C1735
:100D3000C8709AE00120DFF80417C87095E0E4B2AB
:100D4000082C40F09280DFF8F406807801281DD04E
:100D5000DFF8E8068078032818D0DFF8E00680780E
:100D6000052813D0DFF8D406807807280ED0DFF8E6
:100D7000CC068078082809D0DFF8C00680780A28D9
:100D800004D0DFF8B80680780C2811D1DFF8AC0663
:100D9000C0781F2807DADFF8A406C078401CDFF807
:100DA0009C16C87061E01F20DFF89016C8705CE0E8
:100DB000DFF88806807804280ED0DFF88006807877
:100DC000062809D0DFF874068078092804D0DFF8F7
:100DD0006C0680780B2811D1DFF86006C0781E28D9
:100DE00007DADFF85806C078401CDFF85016C870E4
:100DF0003BE01E20DFF84416C87036E0DFF83C0602
:100E00008078022831D1DFF834060088002809D024
:100E1000DFF828060088042190FBF1F201FB1200A4
:100E2000002811D1DFF81406C0781D2807DADFF892
:100E30000C06C078401CDFF80416C87015E01D20B1
:100E4000DFF8F815C87010E0DFF8F005C0781C284E
:100E500007DADFF8E805C078401CDFF8E015C87055
:100E600003E01C20DFF8D415C870DFF8D005427904
:100E7000DFF8CC15684604F02DFC6A465921742031
:100E800002F064FDDFF8B4058279DFF8B415684636
:100E900004F020FC6A4659219C2002F057FDDFF83F
:100EA0009C05C279DFF89815684604F013FC6A4681
:100EB0005921C42002F04AFDDFF88005008810F5B2
:100EC000FA62DFF85017684604F004FC6A46952180
:100ED000742002F03BFDDFF864058278DFF86015CE
:100EE000684604F0F7FB6A469521AC2002F02EFD1F
:100EF000DFF84805C278DFF84815684604F0EAFBD9
:100F0000012002F0B5FF6A469521D42002F01EFDB3
:100F1000002002F0ADFFDFF80027C821502002F0CA
:100F200015FDDFF8F826C821BC2002F00FFD1CE1FA
:100F3000E4B20F2C21D10120DFF8E4130870002067
:100F4000DFF8E01308700020DFF8DC130870F023EE
:100F50004FF4A0720021002002F0AFFBDFF8CC2399
:100F60000421702002F00CFC1A234FF4A072192106
:100F7000002002F0EDFD01F00EBCDFF8C004427964
:100F8000DFF8BC14684604F0A5FB6A4659217420BA
:100F900002F0DCFCDFF8A4048279DFF8A4146846D0
:100FA00004F098FB6A4659219C2002F0CFFCDFF840
:100FB0008C04C279DFF88814684604F08BFB6A461B
:100FC0005921C42002F0C2FCDFF87004008810F53B
:100FD000FA62DFF84016684604F07CFB6A46952109
:100FE000742002F0B3FCDFF854048278DFF8501468
:100FF000684604F06FFB6A469521AC2002F0A6FC1F
:10100000DFF83804C278DFF83814684604F062FB71
:101010006A469521D42002F099FC012002F028FFB5
:10102000DFF8F425C821502002F090FC002002F0E7
:101030001FFFDFF8E825C821BC2002F087FC94E000
:10104000E4B20F2C39D1DFF8F40304F0A3FCF02351
:101050004FF4A0720021002002F02FFBA0234FF4D8
:1010600080725021402002F041FDDFF83C287821B9
:10107000642002F06BFC4FF4FA7004F031FE0120A2
:10108000A74908700020A84908700020A5490870E9
:10109000F0234FF4A0720021002002F00EFBA34ABF
:1010A0000421702002F06CFB1A234FF4A072192166
:1010B000002002F04DFD01F06EBBDFF880034279A5
:1010C000DF49684604F006FB6A465921742002F0A5
:1010D0003DFCDA488279DA49684604F0FBFA6A4650
:1010E00059219C2002F032FCD448C279D449684688
:1010F00004F0F0FA6A465921C42002F027FCCF48D8
:10110000008810F5FA62DFF80C15684604F0E2FA80
:101110006A469521742002F019FCC8488278C849B3
:10112000684604F0D7FA6A469521AC2002F00EFC1E
:10113000C248C278C249684604F0CCFA6A46952192
:10114000D42002F003FCDFF8D024C821502002F0A4
:10115000FDFB012002F08CFEDFF8C024C821BC207A
:1011600002F0F4FB002002F083FE01F014BBE4B2B5
:10117000042C11D1DFF8600E0078022807DBDFF8BD
:10118000580E0078401EDFF8501E087018E0062048
:10119000DFF8441E087013E0E4B2082C10D1DFF829
:1011A000380E0078062807DADFF82C0E0078401C8D
:1011B000DFF8241E087003E00120DFF81C1E087011
:1011C000DFF8140E007801280FD0C0F03483032814
:1011D00000F01B81C0F08F80052800F02182C0F054
:1011E0009681062800F0968225E3E4B20C2C16D1F5
:1011F000DFF8E80D0078002806D0DFF8E00D007871
:10120000401EDFF8D81D0870DFF8D40DDFF8CC1DC4
:10121000097850F82100DFF8CC1D086018E0E4B22E
:10122000102C15D1DFF8B40D00780A2806DADFF8A3
:10123000AC0D0078401CDFF8A41D0870DFF8A00D8D
:10124000DFF8981D097850F82100DFF8981D086034
:10125000DFF8900D0268DFF8401E684604F03AFAA5
:10126000012002F005FE6A463221782002F06EFB72
:10127000002002F0FDFDDFF8240E0268B8A16846E8
:1012800004F028FA6A465A21782002F05FFBDFF862
:10129000100E0268B2A1684604F01CFA6A46822168
:1012A000782002F053FBDFF8FC0D0068002803D023
:1012B00002280FD007D313E0DFF8EC2DAA21782005
:1012C00002F044FB0CE0DFF8E42DAA21782002F0C4
:1012D0003DFB05E0DFF8D82DAA21782002F036FB8F
:1012E000CD4AC821502002F031FBCC4AC821BC2095
:1012F00002F02CFB9FE2E4B20C2C21D1DFF8B40DFC
:10130000007800282ED00020DFF8A81D0870DFF834
:10131000A80D4078DFF8841D086023E0F0AE0108D6
:10132000394700204247002040470020E4B201082E
:10133000354700202C4600204C41002000000020B2
:10134000E4B2102C0ED1DFF86C0D0078002809D122
:101350000020DFF8601D0870DFF85C0D0078DFF812
:101360003C1D0860DFF87C0C0268DFF82C1D684625
:1013700004F0B0F96A463221782002F0E7FADFF88B
:101380001C0D026876A1684604F0A4F9012002F061
:101390006FFD6A465A21782002F0D8FA002002F048
:1013A00067FDDFF8FC0C02686DA1684604F092F955
:1013B0006A468221782002F0C9FADFF8E80C00685A
:1013C000002803D002280FD007D313E0DFF8D82C71
:1013D000AA21782002F0BAFA0CE0DFF8D02CAA217A
:1013E000782002F0B3FA05E0DFF8C42CAA217820B7
:1013F00002F0ACFA884AC821502002F0A7FA874AC6
:10140000C821BC2002F0A2FA15E2E4B20C2C19D1DA
:10141000DFF8A80C0078002826D00020DFF89C1CFC
:101420000870DFF89C0C4078DFF8741C08601BE043
:1014300034470020A8310020000300205C45002034
:1014400020B50108E4B2102C0ED1DFF8700C007842
:10145000002809D10120DFF8641C0870DFF8600C57
:101460000078DFF83C1C0860DFF8780B0268DFF8D2
:10147000281C684604F02EF96A463221782002F0D2
:1014800065FADFF8180C026835A1684604F022F905
:101490006A465A21782002F059FADFF8040C0268F3
:1014A0002FA1684604F016F9012002F0E1FC6A461B
:1014B0008221782002F04AFA002002F0D9FCDFF8FD
:1014C000E40B0068002803D002280FD007D313E0F4
:1014D000DFF8D42BAA21782002F038FA0CE0DFF8EC
:1014E000CC2BAA21782002F031FA05E0DFF8C02BDE
:1014F000AA21782002F02AFA474AC821502002F097
:1015000025FA464AC821BC2002F020FA93E1E4B251
:101510000C2C12D1DFF8AC0B0078002806D0DFF8D5
:10152000A40B0078401EDFF89C1B0870DFF8940BBA
:101530000078DFF8701B086018E0E4B2102C15D1B9
:10154000DFF8800B0078022806DADFF8780B0078E5
:10155000401CDFF8701B0870DFF8680B02E000BF6A
:10156000256400000078DFF83C1B0860DFF8740A8F
:101570000268DFF8241B684604F0ACF86A463221A2
:10158000782002F0E3F9DFF8140B0268C5A1684681
:1015900004F0A0F86A465A21782002F0D7F9DFF863
:1015A000000B0268BFA1684604F094F86A468221E5
:1015B000782002F0CBF9012002F05AFCDFF8E40AAF
:1015C0000068002803D002280FD007D313E0DFF80B
:1015D000D82AAA21782002F0B9F90CE0DFF8CC2A49
:1015E000AA21782002F0B2F905E0DFF8C42AAA2186
:1015F000782002F0ABF9002002F03AFC064AC8213C
:10160000502002F0A3F9054AC821BC2002F09EF93F
:1016100011E100BF28B5010830B5010838B501084F
:10162000DFF8C0090268DFF8701A684604F052F863
:101630006A463221782002F089F9DFF8600A0268F0
:1016400098A1684604F046F86A465A21782002F0CC
:101650007DF9DFF84C0A026892A1684604F03AF876
:101660006A468221782002F071F9DFF8380A0068B2
:10167000002803D002280FD007D313E0DFF8282A70
:10168000AA21782002F062F90CE0DFF8202AAA21D2
:10169000782002F05BF905E0DFF8142AAA2178200F
:1016A00002F054F9012002F0E3FBDFF81C2AC82104
:1016B000502002F04BF9002002F0DAFBDFF80C2A90
:1016C000C821BC2002F042F9E4B20F2C21D1012044
:1016D000DFF8FC1908700020DFF8F8190870002006
:1016E000DFF8F4190870F0234FF4A07200210020F5
:1016F00001F0E3FFDFF8E4290421702002F040F854
:101700001A234FF4A0721921002002F021FA01F0EF
:1017100042B890E0DFF8CC080268DFF87C19684630
:1017200003F0D8FF6A463221782002F00FF9DFF883
:101730006C0902685BA1684603F0CCFF6A465A2137
:10174000782002F003F9DFF85809026855A16846CD
:1017500003F0C0FF6A468221782002F0F7F8DFF834
:1017600044090068002803D002280FD007D313E0F3
:10177000DFF83429AA21782002F0E8F80CE0DFF83D
:101780002C29AA21782002F0E1F805E0DFF82029D1
:10179000AA21782002F0DAF8DFF82C29C82150209D
:1017A00002F0D4F8012002F063FBDFF82029C82101
:1017B000BC2002F0CBF8002002F05AFBE4B20F2C60
:1017C00039D1F0234FF4A0720021002001F075FF01
:1017D000A0234FF480725021402002F087F9DFF8F7
:1017E00000297821642002F0B1F84FF4FA7004F077
:1017F00077FA0120DFF8D81808700020DFF8D41835
:1018000008700020DFF8D0180870F0234FF4A072A1
:101810000021002001F051FFDFF8C02804217020D2
:1018200001F0AEFF1A234FF4A0721921002002F03C
:101830008FF900F0B0BF00F0AEBF0120DFF8A418B0
:101840000870E4B22000012830D0022800F0C780E0
:10185000032800F05D81042800F02E86052800F0A2
:10186000F081062800F08682072800F01C830828F3
:1018700000F02C86092800F0B7830A2800F0758450
:101880000B2800F00A850C2800F02A860E2800F0AC
:1018900098850F2800F0C986102800F0A48600F073
:1018A00044BF00BF25640000B8B10108DFF8C00DD7
:1018B0000078002851D0DFF8B80D00780A284CDAFB
:1018C000DFF8B00DDFF8B01D09780B225143084452
:1018D000DFF89C1D0978084410F80B0C03283CDA4B
:1018E000DFF8980DDFF8901D09782C225143084449
:1018F000DFF87C1D097800EB8100DFF8781DDFF848
:10190000782D12780B235A431144DFF8642D127896
:10191000114411F80B1C0844012100F82C1CDFF8BD
:10192000540DDFF8541D09780B2251430844DFF8A9
:10193000401D09780844DFF83C1DDFF83C2D127883
:101940000B235A431144DFF8282D1278114411F863
:101950000B1C491C00F80B1C3FE0DFF8140D00784D
:101960000A283AD1DFF80C0DDFF80C1D09780B229C
:1019700051430844DFF8F81C0978084410F80B0CB0
:1019800004282ADADFF8F40CDFF8EC1C09782C22A2
:1019900051430844DFF8DC1CDFF8DC2C12780B2301
:1019A0005A43114411F8011C0844012100F8041C99
:1019B000DFF8C00CDFF8C01C09780B225143084443
:1019C00010F8010C401CDFF8AC1CDFF8AC2C1278CE
:1019D0000B235A43114401F8010C00F0A6BEDFF8B6
:1019E000900C0078002851D0DFF8840C00780A2889
:1019F0004CDADFF8800CDFF8801C09780B225143A9
:101A00000844DFF86C1C0978084410F80B0C032814
:101A10003CDADFF8680CDFF8601C09782C225143AF
:101A20000844DFF84C1C097800EB8100DFF8441C07
:101A3000DFF8442C12780B235A431144DFF8302C82
:101A40001278114411F80B1C0844022100F82C1CD8
:101A5000DFF8200CDFF8201C09780B2251430844E2
:101A6000DFF80C1C09780844DFF8081CDFF8082CA4
:101A700012780B235A431144DFF8F42B12781144E7
:101A800011F80B1C491C00F80B1C3FE0DFF8E00BC1
:101A900000780A283AD1DFF8DC0BDFF8DC1B097884
:101AA0000B2251430844DFF8C81B0978084410F89A
:101AB0000B0C04282ADADFF8C40BDFF8BC1B09780A
:101AC0002C2251430844DFF8AC1BDFF8AC2B127812
:101AD0000B235A43114411F8011C0844022100F859
:101AE000041CDFF8900BDFF8901B09780B225143A0
:101AF000084410F8010C401CDFF8781BDFF8782B45
:101B000012780B235A43114401F8010C00F00DBE6A
:101B1000DFF85C0B0078002851D0DFF8540B007818
:101B20000A284CDADFF84C0BDFF84C1B09780B2243
:101B300051430844DFF8381B0978084410F80B0CAF
:101B400003283CDADFF8340BDFF82C1B09782C2251
:101B500051430844DFF8181B097800EB8100DFF8D7
:101B6000141BDFF8142B12780B235A431144DFF8AF
:101B7000002B1278114411F80B1C0844032100F8C3
:101B80002C1CDFF8F00ADFF8F01A09780B22514319
:101B90000844DFF8DC1A09780844DFF8D81ADFF8BF
:101BA000D82A12780B235A431144DFF8C42A12783A
:101BB000114411F80B1C491C00F80B1C3FE0DFF826
:101BC000B00A00780A283AD1DFF8A80ADFF8A81A84
:101BD00009780B2251430844DFF8941A0978084425
:101BE00010F80B0C04282ADADFF8900ADFF8881ABC
:101BF00009782C2251430844DFF8781ADFF8782A54
:101C000012780B235A43114411F8011C0844032194
:101C100000F8041CDFF85C0ADFF85C1A09780B2274
:101C20005143084410F8010C401CDFF8481ADFF853
:101C3000482A12780B235A43114401F8010C00F092
:101C400074BDDFF82C0A0078002851D0DFF8200A94
:101C500000780A284CDADFF81C0ADFF81C1A097829
:101C60000B2251430844DFF8081A0978084410F899
:101C70000B0C03283CDADFF8040ADFF8FC190978BA
:101C80002C2251430844DFF8E819097800EB810061
:101C9000DFF8E019DFF8E02912780B235A431144EA
:101CA000DFF8CC291278114411F80B1C08440421E8
:101CB00000F82C1CDFF8BC09DFF8BC1909780B22EE
:101CC00051430844DFF8A81909780844DFF8A4193B
:101CD000DFF8A42912780B235A431144DFF8902926
:101CE0001278114411F80B1C491C00F80B1C3FE042
:101CF000DFF87C0900780A283AD1DFF87809DFF8A4
:101D0000781909780B2251430844DFF864190978DF
:101D1000084410F80B0C04282ADADFF86009DFF811
:101D2000581909782C2251430844DFF84819DFF884
:101D3000482912780B235A43114411F8011C084416
:101D4000042100F8041CDFF82C09DFF82C190978AD
:101D50000B225143084410F8010C401CDFF8141901
:101D6000DFF8142912780B235A43114401F8010CAF
:101D700000F0DBBCDFF8F8080078002851D0DFF86D
:101D8000F00800780A284CDADFF8E808DFF8E818ED
:101D900009780B2251430844DFF8D4180978084425
:101DA00010F80B0C03283CDADFF8D008DFF8C8186D
:101DB00009782C2251430844DFF8B418097800EB65
:101DC0008100DFF8B018DFF8B02812780B235A43EF
:101DD0001144DFF89C281278114411F80B1C0844B8
:101DE000052100F82C1CDFF88C08DFF88C18097826
:101DF0000B2251430844DFF8781809780844DFF8CB
:101E00007418DFF8742812780B235A431144DFF852
:101E100060281278114411F80B1C491C00F80B1CA7
:101E20003FE0DFF84C0800780A283AD1DFF8440890
:101E3000DFF8441809780B2251430844DFF83018C2
:101E40000978084410F80B0C04282ADADFF82C086B
:101E5000DFF8241809782C2251430844DFF81418BD
:101E6000DFF8142812780B235A43114411F8011C8F
:101E70000844052100F8041CDFF8F807DFF8F8171C
:101E800009780B225143084410F8010C401CDFF87C
:101E9000E417DFF8E42712780B235A43114401F8C2
:101EA000010C00F042BCDFF8C8070078002851D0D0
:101EB000DFF8BC0700780A284CDADFF8B807DFF84B
:101EC000B81709780B2251430844DFF8A4170978A2
:101ED000084410F80B0C03283CDADFF8A007DFF801
:101EE000981709782C2251430844DFF884170978A1
:101EF00000EB8100DFF87C17DFF87C2712780B23DA
:101F00005A431144DFF868271278114411F80B1C6A
:101F10000844062100F82C1CDFF85807DFF8581792
:101F200009780B2251430844DFF844170978084424
:101F3000DFF84017DFF8402712780B235A4311448B
:101F4000DFF82C271278114411F80B1C491C00F8FB
:101F50000B1C3FE0DFF8180700780A283AD1DFF8B9
:101F60001407DFF8141709780B2251430844DFF8EF
:101F700000170978084410F80B0C04282ADADFF857
:101F8000FC06DFF8F41609782C2251430844DFF8E8
:101F9000E416DFF8E42612780B235A43114411F8B3
:101FA000011C0844062100F8041CDFF8C806DFF80D
:101FB000C81609780B225143084410F8010C401C44
:101FC000DFF8B016DFF8B02612780B235A4311441D
:101FD00001F8010CA9E300BF0103002032470020F3
:101FE00064AD0108D8020020DFF8840600780028DC
:101FF0007AD0DFF87C0600780A2875DADFF87406F4
:10200000DFF8741609780B2251430844DFF8601694
:102010000978084410F80B0C032865DADFF85C0631
:10202000DFF8541609782C2251430844DFF8401693
:10203000097800EB8100DFF83C16DFF83C261278C7
:102040000B235A431144DFF828261278114411F863
:102050000B1C0844072100F82C1CDFF81806DFF8D9
:10206000181609780B2251430844DFF80416097842
:102070000844DFF80016DFF8002612780B235A43D5
:102080001144DFF8EC251278114411F80B1C491C9F
:1020900000F80B1C68E000BF40B50108DC0200201E
:1020A000E00200200C46002048B5010850B50108A8
:1020B00058B5010805030020624D00080603002002
:1020C000D65D00083347002030B5010838B5010857
:1020D000394700204247002040470020E4B2010871
:1020E000C8B1010835470020DFF8840500780A28C8
:1020F0003AD1DFF88005DFF8801509780B225143CB
:102100000844DFF86C150978084410F80B0C042813
:102110002ADADFF86805DFF8601509782C225143C8
:102120000844DFF85015DFF8502512780B235A4386
:10213000114411F8011C0844072100F8041CDFF8C1
:102140003405DFF8341509780B225143084410F8A0
:10215000010C401CDFF81C15DFF81C2512780B233E
:102160005A43114401F8010CDFE2DFF8040500785E
:10217000002851D0DFF8F80400780A284CDADFF89C
:10218000F404DFF8F41409780B2251430844DFF813
:10219000E0140978084410F80B0C03283CDADFF847
:1021A000DC04DFF8D41409782C2251430844DFF80A
:1021B000C014097800EB8100DFF8B814DFF8B82408
:1021C00012780B235A431144DFF8A42412781144E7
:1021D00011F80B1C0844082100F82C1CDFF89404AB
:1021E000DFF8941409780B2251430844DFF8801477
:1021F00009780844DFF87C14DFF87C2412780B237C
:102200005A431144DFF868241278114411F80B1C6A
:10221000491C00F80B1C3FE0DFF8540400780A2842
:102220003AD1DFF85004DFF8501409780B225143FB
:102230000844DFF83C140978084410F80B0C042813
:102240002ADADFF83804DFF8301409782C225143F9
:102250000844DFF82014DFF8202412780B235A43B7
:10226000114411F8011C0844082100F8041CDFF88F
:102270000404DFF8041409780B225143084410F8D1
:10228000010C401CDFF8EC13DFF8EC2312780B2371
:102290005A43114401F8010C47E2DFF8D4030078F7
:1022A000002851D0DFF8C80300780A284CDADFF89C
:1022B000C403DFF8C41309780B2251430844DFF844
:1022C000B0130978084410F80B0C03283CDADFF847
:1022D000AC03DFF8A41309782C2251430844DFF83B
:1022E0009013097800EB8100DFF88813DFF888236A
:1022F00012780B235A431144DFF8742312781144E7
:1023000011F80B1C0844092100F82C1CDFF86403A9
:10231000DFF8641309780B2251430844DFF85013A7
:1023200009780844DFF84C13DFF84C2312780B23AC
:102330005A431144DFF838231278114411F80B1C6A
:10234000491C00F80B1C3BE0DFF8240300780A2846
:1023500036D1DFF82003DFF8201309780B22514330
:102360000844DFF80C130978084410F80B0C042813
:1023700026DADFF80803DFF8001309782C2251432E
:102380000844DFF8F012DFF8F02212780B235A43EA
:10239000114411F8011C0844092100F8041CB54837
:1023A000B54909780B225143084410F8010C401C30
:1023B000B049B14A12780B235A43114401F8010C79
:1023C000B3E1AB480078002841D0A94800780A283A
:1023D0003DDAA848A84909780B2251430844A4498A
:1023E0000978084410F80B0C032830DAA348A249F6
:1023F00009782C22514308449D49097800EB81005B
:102400009C499D4A12780B235A431144984A1278EA
:10241000114411F80B1C0844002100F82C1C9548AD
:10242000954909780B225143084491490978084499
:102430009049914A12780B235A4311448C4A1278DE
:10244000114411F80B1C491C00F80B1C33E08848A0
:1024500000780A282FD18748874909780B225143F1
:10246000084483490978084410F80B0C042822DA40
:102470008248814909782C22514308447D497E4A8B
:1024800012780B235A43114411F8011C084400210F
:1024900000F8041C7748784909780B225143084416
:1024A00010F8010C401C7349734A12780B235A43ED
:1024B000114401F8010C38E16D480078002804D07F
:1024C0006B480078401E6A4908702EE16848007821
:1024D0000A2804DA66480078401C6549087024E13F
:1024E00063480078002809D163480078022879DB26
:1024F00061480078401E6049087073E05C480078CD
:102500000B286FDA5B485C4909780B225143084479
:1025100057490978084410F80B0C022830DB57485B
:10252000554909782C22514308445149097800EB58
:1025300081005049504A12780B235A4311444C4AA7
:102540001278114411F80B1C0844002100F82D1CCE
:102550004848494909780B225143084444490978BD
:1025600008444449444A12780B235A431144404AD0
:102570001278114411F80B1C491E00F80B1C31E0B5
:102580003C483D4909780B225143084438490978B1
:10259000084410F80B0C012824D138483649097832
:1025A0002C22514308443249097800EB810031491B
:1025B000314A12780B235A4311442D4A12781144A0
:1025C00011F80B1C0844002100F82D1C29482A4949
:1025D00009780B2251430844254909780844002111
:1025E00000F80B1CA1E022480078002809D12248FD
:1025F0000078042818DA20480078401C1E4908702A
:1026000012E01B480078062805DA19480078401DBA
:102610001749087008E0164800780B2804DA1448B7
:102620000078401F124908707FE0DFF8680A1249FD
:1026300009781622514308440D49097800EB4100FE
:1026400030F8160C002870D009480078012817D0FF
:102650006BD3032829D014D305283BD039D30728BE
:102660004DD038D309284CD04AD30A285DD05CE03D
:1026700034470020D4430020020300209C40002067
:1026800053E0DFF8100ADFF8281E097816225143BC
:10269000084430F8120CDFF8001ADFF8142E127814
:1026A00001EBC201A1F8D8003FE0DFF8E809DFF84C
:1026B000001E097816225143084430F8100CDFF848
:1026C000D819DFF8EC2D127801EBC201A1F8DA007D
:1026D0002BE02AE029E0DFF8BC09DFF8D41D0978F7
:1026E00016225143084430F80A0CDFF8AC19DFF821
:1026F000C02D127801EBC201A1F8DC0015E014E056
:1027000013E0DFF89009DFF8A81D0978162251437D
:10271000084430F8040CDFF88019DFF8942D1278A3
:1027200001EBC201A1F8DE00FFE7DFF8880D0078B9
:10273000DFF87C1D0978884204D0DFF8740D00783A
:1027400000F088FADFF83C0C0078DFF83C1C0978D0
:10275000884207D0DFF8300C0178DFF8280C0078C9
:1027600000F036FB00F0E7FCDFF81C0C0278DFF825
:10277000140C0178DFF8380D007800F013FEDFF854
:10278000040C0078DFF8001C0870DFF8240D0078D6
:10279000DFF8201D08702BB030BD7CB50824DFF8B1
:1027A000EC5BDFF8EC6B22002900300002F096FAB7
:1027B0000120DFF8E01B0870F0234FF4A072002125
:1027C000002000F07AFF1A234FF4A0721921002094
:1027D00001F0BEF9DFF8C02B04216C2001F0B6F83F
:1027E000DFF8B82B5A21502001F0B0F8DFF8B02BF9
:1027F0009621502001F0AAF8DFF8900B4279DFF81B
:10280000B81C684602F066FF012001F031FB6A4601
:102810005921742001F09AF8002001F029FB9DA2B3
:1028200059218C2001F092F8DFF8600B8279DFF8F3
:10283000881C684602F04EFF6A4659219C2001F030
:1028400085F894A25921B42001F080F8DFF83C0B00
:10285000C279DFF8641C684602F03CFF6A465921E1
:10286000C42001F073F86A2385225721722001F0F9
:102870003DF96A23AD2257219A2001F037F96A23E6
:10288000D5225721C22001F031F9DFF8000B008872
:1028900010F5FA62DFF8241C684602F01BFF6A4656
:1028A0009521742001F052F87BA295219C2001F023
:1028B0004DF8DFF8D80A8278DFF8FC1B684602F092
:1028C00009FF6A469521AC2001F040F872A29521DB
:1028D000C42001F03BF8DFF8B40AC278DFF8D81B57
:1028E000684602F0F7FE6A469521D42001F02EF8E2
:1028F000A62395229321722001F0F8F8A623BD2289
:102900009321AA2001F0F2F8A623E5229321D220F8
:1029100001F0ECF8DFF8A82BC821502001F016F8E0
:10292000D9237122C6214E2001F0E0F8D923DD22FF
:10293000C621BA2001F0DAF8DFF8882BC821BC20C4
:1029400001F004F873BD00B583B0F0234FF4A0721A
:102950000021002000F0B1FE1A234FF4A0721921CB
:10296000002001F0F5F8DFF8602B0421682000F06A
:10297000EDFFDFF8580B0268DFF8541B684602F0E1
:10298000A9FEDFF8502B32213C2000F0DFFF0120B0
:1029900001F06EFA6A463221782000F0D7FF00205D
:1029A00001F066FA4323A9223021762001F09EF837
:1029B000DFF8240B0268A6A1684602F08BFEDFF860
:1029C0001C2B5A213C2000F0C1FF6A465A21782076
:1029D00000F0BCFF6B2381225821762001F086F89D
:1029E000DFF8FC0A02689AA1684602F073FEDFF87D
:1029F000F42A82213C2000F0A9FF6A468221782037
:102A000000F0A4FF932381228021762001F06EF84C
:102A1000DFF8D40A0068002803D002280FD007D3BB
:102A200013E0DFF8C82AAA21782000F08FFF0CE01D
:102A3000DFF8BC2AAA21782000F088FF05E0DFF843
:102A4000B42AAA21782000F081FFDFF8AC2AAA215D
:102A5000482000F07BFFBB239922A821762001F0BB
:102A600045F8DFF85C2AC821502000F06FFFD92319
:102A70007122C6214E2001F039F8D923DD22C6216A
:102A8000BA2001F033F8DFF83C2AC821BC2000F05E
:102A90005DFF07BD3A0000002D00000080B5F02367
:102AA0004FF4A0720021002000F007FEDFF8000ABA
:102AB000007800F0CFF8DFF8442A20211C2000F035
:102AC0005FFEDFF8382A2021BC2000F059FEDFF835
:102AD000302A20217C2000F053FEDFF8282A202114
:102AE000582000F04DFEDFF81C2A2021F82000F0CD
:102AF00047FEDFF80C2A20214FF48E7000F040FED4
:102B0000A9A234211C2000F0DEFEA8A25C211C201A
:102B100000F0D9FEA6A284211C2000F0D4FEA5A2BC
:102B2000AC211C2000F0CFFEA3A2D4211C2000F079
:102B3000CAFEA2A23421BC2000F0C5FEA0A25C21E6
:102B4000BC2000F0C0FE9FA28421BC2000F0BBFE90
:102B50009DA2AC21BC2000F0B6FEDFF8AC29D42148
:102B6000B42000F0B0FE99A23421582000F0ABFE52
:102B700096A25C21582000F0A6FE94A28421582041
:102B800000F0A1FE91A2AC21582000F09CFE8FA283
:102B9000D421582000F097FE8CA23421F82000F0B8
:102BA00092FE8AA25C21F82000F08DFE87A284218B
:102BB000F82000F088FE85A2AC21F82000F083FE0A
:102BC000DFF84829D421F02000F07DFE4523712252
:102BD0003221562000F08AFF6D2371225A2156209F
:102BE00000F084FF952371228221562000F07EFFA1
:102BF000BD237122AA21562000F078FFE52371221F
:102C0000D221562000F072FF452340F211123221EA
:102C1000F62000F06BFF6D2340F211125A21F620CE
:102C200000F064FF952340F211128221F62000F09B
:102C30005DFFBD2340F21112AA21F62000F056FFDD
:102C4000E52340F21112D221EE2000F04FFF01BD2A
:102C5000256400001CB504001A234FF4A072002163
:102C6000002000F02AFDE4B2012C07D0C0F09B80C8
:102C7000032C51D02CD3042C72D094E0DFF8902890
:102C80000421702000F07CFD1423682202216820BA
:102C900000F0FAFE3C200190DFF87808009016233F
:102CA00069220221552000F0FFFF3C200190DFF84F
:102CB000680800901623E6220221D22000F0F4FFDB
:102CC0001A234FF4A0721821002000F041FF6AE09F
:102CD000DFF848280421702000F052FD3C200190CC
:102CE000DFF83C080090162369220221552000F0ED
:102CF000DBFF3C200190DFF8200800901623E6223D
:102D00000221D22000F0D0FF1A234FF4A072182124
:102D1000002000F01DFF46E0DFF8082804217020A5
:102D200000F02EFD3C200190DFF8F4070090162300
:102D300069220221552000F0B7FF3C200190DFF806
:102D4000D80700901623E6220221D22000F0ACFF23
:102D50001A234FF4A0721821002000F0F9FE22E09F
:102D6000DFF8C4270421702000F00AFD3C20019008
:102D7000DFF8AC070090162369220221552000F0ED
:102D800093FF3C200190DFF8A40700901623E62271
:102D90000221D22000F088FF1A234FF4A0721821DC
:102DA000002000F0D5FE13BD31303000323030004D
:102DB00033303000343030003530300036303000C1
:102DC00037303000383030003930300030303000AB
:102DD00038B504000D00E4B2002C16D0022C4AD005
:102DE0002BD3042C00F0838063D3062C00F0BB802F
:102DF000C0F09B80082C00F0F280C0F0D2800A2C3A
:102E000000F02981C0F0098142E12800C0B200F041
:102E100045F90020C0B204280EDA0021DFF810279F
:102E2000C0B21154DFF80C17C0B22C2202FB00F222
:102E300000238B50401CEDE72AE13C210A2000F0E2
:102E4000FFFE2800C0B200F029F90220DFF8E016EA
:102E5000DFF85C261278114401F8010CDFF8D40683
:102E6000DFF84C1609782C2251430844DFF8C816C5
:102E700040F82C1C0CE164210A2000F0E1FE28003F
:102E8000C0B200F00BF90220DFF8A416DFF820260C
:102E90001278114401F8010CDFF89806DFF81016DB
:102EA00009782C2251430844DFF8901640F82C1C76
:102EB000EEE08C210A2000F0C3FE2800C0B200F032
:102EC000EDF80220DFF86816DFF8E42512781144E7
:102ED00001F8010CDFF85C06DFF8D41509782C2224
:102EE00051430844DFF8581640F82C1CD0E0B421B8
:102EF0000A2000F0A5FE2800C0B200F0CFF80220A2
:102F0000DFF82C16DFF8A8251278114401F8010C1F
:102F1000DFF82006DFF8981509782C225143084481
:102F2000DFF8201640F82C1CB2E0DC210A2000F06B
:102F300087FE2800C0B200F0B1F80220DFF8F015DB
:102F4000DFF86C251278114401F8010CDFF8E40574
:102F5000DFF85C1509782C22514308445FF07C515E
:102F600040F82C1C94E03C21AA2000F069FE2800C7
:102F7000C0B200F093F80220DFF8B415DFF8302576
:102F80001278114401F8010CDFF8A805DFF82015CC
:102F900009782C2251430844DFF8AC1540F82C1C6A
:102FA00076E06421AA2000F04BFE2800C0B200F0B9
:102FB00075F80220DFF87815DFF8F4241278114450
:102FC00001F8010CDFF86C05DFF8E41409782C2215
:102FD00051430844DFF8741540F82C1C58E08C214C
:102FE000AA2000F02DFE2800C0B200F057F8022001
:102FF000DFF83C15DFF8B8241278114401F8010C11
:10300000DFF83005DFF8A81409782C225143084472
:10301000DFF83C1540F82C1C3AE0B421AA2000F05F
:103020000FFE2800C0B200F039F80220DFF80015CA
:10303000DFF87C241278114401F8010CDFF8F40465
:10304000DFF86C1409782C2251430844DFF804158A
:1030500040F82C1C1CE0DC21AA2000F0F1FD280027
:10306000C0B200F01BF80220DFF8C414DFF84024DF
:103070001278114401F8010CDFF8B804DFF83014BD
:1030800009782C22514308445FF07E5140F82C1CF3
:1030900031BD00005C4200200000002010B504009B
:1030A000E4B2002C46D0E4B20B2C43DAE4B2012C9B
:1030B0000FD03FD3032C16D010D3052C1DD017D31F
:1030C000072C24D01ED3092C2BD025D30A2C2DD08D
:1030D00030E03C210A2000F0D8FD2BE064210A20DA
:1030E00000F0D3FD26E08C210A2000F0CEFD21E087
:1030F000B4210A2000F0C9FD1CE0DC210A2000F008
:10310000C4FD17E03C21AA2000F0BFFD12E06421BD
:10311000AA2000F0BAFD0DE08C21AA2000F0B5FD38
:1031200008E0B421AA2000F0B0FD03E0DC21AA20D1
:1031300000F0ABFD10BD30B583B06846DFF8181461
:10314000D1E90023C0E900230120C0B20A2839DAFE
:10315000DFF80814D64A127816235A431144C0B235
:1031600001EB4001DFF8F823D14B1B782C2463439B
:103170001A44C0B202EB800212F82C2C642312FB1A
:1031800003F2DFF8DC33CA4C24782C256C4323444B
:10319000C0B203EB800313F82B3C0A2413FB042278
:1031A000DFF8BC33C24C24782C256C432344C0B2D6
:1031B00003EB800313F82A3C52FA83F221F8162C11
:1031C000401CC2E7DFF89803B94909782C22514323
:1031D000084410F8040C4FF47A7110FB01F0E04938
:1031E000B34A12782C235A43114411F8031C642269
:1031F00011FB0200DA49AE4A12782C235A431144DB
:1032000011F8021C0A2211FB0200D549A84A1278C3
:103210002C235A43114411F8011C50FA81F0CF4974
:10322000A34A127816235A43114421F8020CCB48C2
:103230009F49097816225143084430F8142CC94993
:10324000684602F047FA6A463421582000F03BFBFA
:10325000C2489749097816225143084430F8122C85
:10326000C049684602F036FA6A465C21582000F0F0
:103270002AFBBA488E49097816225143084430F88F
:10328000102CB849684602F025FA6A468421582075
:1032900000F019FBB14886490978162251430844C9
:1032A00030F80E2CAF49684602F014FA6A46AC2199
:1032B000582000F008FBA9487D490978162251439F
:1032C000084430F80C2CA749684602F003FA6A4615
:1032D000D421582000F0F7FAA04875490978162241
:1032E0005143084430F80A2C9E49684602F0F2F92E
:1032F0006A463421F82000F0E6FA98486C490978CB
:1033000016225143084430F8082C9649684602F0CA
:10331000E1F96A465C21F82000F0D5FA8F4864494B
:10332000097816225143084430F8062C8D49684626
:1033300002F0D0F96A468421F82000F0C4FA8748E8
:103340005B49097816225143084430F8042C85491A
:10335000684602F0BFF96A46AC21F82000F0B3FAE3
:103360007E485349097816225143084430F8022C0C
:103370005249684602F0AEF96A46D421F02000F0C6
:10338000A2FA37BD34470020040300208C0200203D
:103390005C45002000030020D8B1010860B5010899
:1033A00068B501082DE9F04383B004000D00160054
:1033B000684600210022C0E900125E48E4B22C21D8
:1033C00001FB04F10844103890ED000ABDEEC00A7C
:1033D00010EE102A92B23949684602F07BF9EDB23C
:1033E000002D0ED0EDB2062D0BDA6A46EDB2282084
:1033F00000FB05F00C30010089B27C2000F063FA7C
:1034000011E0EDB2062D0EDBEDB20B2D0BDA6A46A4
:10341000EDB2282000FB05F0BC38010089B24FF462
:103420008C7000F050FA30002900C0B2C9B2884256
:103430003BD004275FF02008E94642463900484661
:1034400002F096FCF6B2002E15D0F6B2062E12DA75
:10345000F6B2282000FB06F01C3003009BB29C2231
:10346000F6B2282000FB06F00C30010089B27C2067
:1034700000F023F919E0F6B2062E16DBF6B20B2E99
:1034800013DAF6B2282000FB06F01C3003009BB2D2
:103490004FF49C72F6B2282000FB06F0BC38010005
:1034A00089B24FF48C7000F008F9BDE8F783000092
:1034B000020300200303002020B5010828B50108FD
:1034C00030B5010838B5010820B30108D802002042
:1034D00040B5010870B50108DC02002078B501088C
:1034E000E002002080B501080C46002048B5010824
:1034F00050B5010858B5010888B5010890B5010814
:1035000098B50108A0B50108A8B50108B0B5010833
:10351000E8B10108ECAB010874AB0108F8B101088F
:10352000B0AB010808B2010818B2010838AB0108B5
:103530002C4600204C410020CDCCCC3DCDCC4C3E87
:103540009A99993ECDCCCC3E9A99193F3333333F6B
:10355000CDCC4C3F6666663FB8B501085C420020A2
:103560009C400020C0B50108DFF8D019096811F4AB
:103570007F41C0B20143DFF8C4291160704710B524
:1035800004004FF40061DFF8B80902F08CFC200061
:10359000C0B2FFF7E9FF4FF48051DFF8A80902F04D
:1035A00082FC4FF48061DFF89C0902F07CFC02F0A1
:1035B0008BFA4FF48061DFF88C0902F072FC4FF453
:1035C0008051DFF8800902F06CFC10BD80B54FF42B
:1035D0000061DFF86C0902F064FC0120FFF7C4FF12
:1035E0004FF48051DFF85C0902F05DFC4FF480611C
:1035F000DFF8500902F057FC02F066FA4FF48061E0
:10360000DFF8400902F04DFC4FF48051DFF8340937
:1036100002F047FC01BD38B5040020780500EDB28A
:10362000002D05D0641C2078FFF7A9FF6D1EF6E77A
:10363000FFF7CCFF012002F066FA31BD10B582B071
:10364000040003208DF8000020208DF801002000E8
:103650008DF80200200080B2000A8DF80300684651
:10366000FFF7D9FF13BD10B582B0040003208DF819
:10367000000014208DF8010020008DF802002000C9
:1036800080B2000A8DF803006846FFF7C4FF13BD3F
:1036900010B582B0040003208DF8000015208DF8CD
:1036A000010020008DF80200200080B2000A8DF891
:1036B00003006846FFF7AFFF13BDF8B504000D0027
:1036C00016001F000020FFF7B9FF3B009BB232003D
:1036D00092B2290089B2200080B200F039FA1F208E
:1036E000FFF7C1FF0020FFF7D3FFF1BDFEB50700D4
:1036F0000C001500BFB2042097FBF0F100FB117025
:1037000000283CD102208DF8000010208DF8010027
:1037100000208DF802006846FFF77DFF05208DF838
:10372000040012208DF8050038008DF806003800DE
:1037300080B2000A8DF8070020008DF808002000F4
:1037400080B2000A8DF8090001A8FFF764FF280085
:1037500002F0DEFB06001720FFF711FF3000C0B2B9
:10376000FFF70DFF2878002804D02878FFF707FF1F
:103770006D1CF7E7FFF72AFF012002F0B1FAF7BD51
:10378000F0B583B007000C001500BFB2042097FB12
:10379000F0F100FB117000283FD102208DF80000ED
:1037A00010208DF8010004208DF802006846FFF714
:1037B00032FF05208DF8000012208DF8010038003E
:1037C0008DF80200380080B2000A8DF80300200056
:1037D0008DF80400200080B2000A8DF805006846CC
:1037E000FFF719FF280002F093FB06001720FFF7F0
:1037F000C6FEB6B2022096FBF0F0C0B2FFF7BFFEE5
:103800002878002804D02878FFF7B9FE6D1CF7E768
:10381000FFF7DCFE052002F063FAF7BD2DE9FC415D
:1038200004000D0016000027A4B2042094FBF0F160
:1038300000FB1140002844D1300002F069FB8046B3
:103840003800C0B2414680B289B2884239D20220E3
:103850008DF8000010208DF8010004208DF8020082
:103860006846FFF7D8FE05208DF8000012208DF87D
:10387000010020008DF80200200080B2000A8DF8BF
:10388000030028008DF80400280080B2000A8DF89B
:1038900005006846FFF7BFFE1620FFF770FEFFB277
:1038A000F05DFFF76CFEFFB206EB07004078FFF714
:1038B00066FEFFF78BFE1035BF1C642002F023F973
:1038C000BEE7BDE8F3817CB504000D001600A4B28C
:1038D000042094FBF0F100FB1140002835D1307832
:1038E000002832D002208DF8000010208DF8010051
:1038F00004208DF802006846FFF78DFE05208DF844
:10390000000012208DF8010020008DF80200200038
:1039100080B2000A8DF8030028008DF8040028000A
:1039200080B2000A8DF805006846FFF774FE162085
:10393000FFF725FE3078FFF722FE761CFFF746FEE4
:103940000834642002F0DFF8C9E773BD7CB50600D7
:103950000C001500B6B2042096FBF0F100FB1160DC
:1039600000286FD1287800286CD02878812836DB91
:1039700002208DF8000010208DF8010004208DF841
:1039800002006846FFF747FE05208DF80000122070
:103990008DF8010030008DF80200300080B2000A7E
:1039A0008DF8030020008DF80400200080B2000A8A
:1039B0008DF805006846FFF72EFE1620FFF7DFFDA5
:1039C0002878FFF7DCFD6D1C2878FFF7D8FD6D1C0B
:1039D000FFF7FCFD1036782002F095F8C2E70220D0
:1039E0008DF8000010208DF8010004208DF80200F1
:1039F0006846FFF710FE05208DF8000012208DF8B4
:103A0000010030008DF80200300080B2000A8DF80D
:103A1000030020008DF80400200080B2000A8DF819
:103A200005006846FFF7F7FD1620FFF7A8FD287888
:103A3000FFF7A5FD6D1CFFF7C9FD0836782002F0E1
:103A400062F88FE773BD30B583B004000D00052028
:103A50008DF8000023208DF8010020008DF8020071
:103A6000200080B2000A8DF8030028008DF80400C1
:103A7000280080B2000A8DF805006846FFF7CBFDEC
:103A8000232002F040F837BDFEB504000D001700FA
:103A90001E0009208DF8000024208DF80100200070
:103AA0008DF80200200080B2000A8DF80300280083
:103AB0008DF80400280080B2000A8DF80500380057
:103AC0008DF80600380080B2000A8DF8070030003B
:103AD0008DF80800300080B2000A8DF809006846B1
:103AE000FFF799FD052002F0FBF8F7BDFEB50400D5
:103AF0000D0017001E0009208DF8000026208DF80B
:103B0000010020008DF80200200080B2000A8DF82C
:103B1000030028008DF80400280080B2000A8DF808
:103B2000050038008DF80600380080B2000A8DF8D4
:103B3000070030008DF80800300080B2000A8DF8D0
:103B400009006846FFF767FD052002F0C9F8F7BDD8
:103B5000FEB504000D0017001E0009208DF80000BE
:103B600027208DF8010020008DF80200200080B28F
:103B7000000A8DF8030028008DF80400280080B2A8
:103B8000000A8DF8050038008DF80600380080B274
:103B9000000A8DF8070030008DF80800300080B270
:103BA000000A8DF809006846FFF735FD052002F090
:103BB00097F8F7BD7CB506000C00150006208DF8BF
:103BC000000028208DF8010030008DF80200300040
:103BD00080B2000A8DF8030020008DF80400200058
:103BE00080B2000A8DF805008DF806506846FFF790
:103BF00012FD142002F074F873BD7CB506000C00B1
:103C0000150006208DF8000029208DF801003000F5
:103C10008DF80200300080B2000A8DF80300200009
:103C20008DF80400200080B2000A8DF805008DF8A0
:103C300006506846FFF7EFFC142002F051F873BD00
:103C400038B504000D002B009BB214F10A0292B2A9
:103C5000290089B2200080B2FFF716FF2B1F9BB20C
:103C6000E21D92B2290089B214F10B0080B2FFF775
:103C70000BFF2B1D9BB2E21D92B2290089B214F1F9
:103C80000B0080B2FFF700FF31BD38B504000D0016
:103C90002B1D9BB214F10B0292B2291F89B2200096
:103CA00080B2FFF70AFD31BD2DE9F84F82B0050063
:103CB0000E001700DDF830800D9CADF8005000209C
:103CC00083465846210080B289B2884232D21FFA18
:103CD0008BFB18F80B008146002082461FFA8AFAF7
:103CE000BAF1080F23DA5FEA096005D4310089B21E
:103CF000280080B2FFF7A7FE5FEA49096D1CADB24C
:103D0000B5F5A07F16DA2800390080B289B2884262
:103D10000AD3BDF800000500761C3000BDF808107D
:103D200080B2884206D202E01AF1010AD6E71BF1FE
:103D3000010BC6E7BDE8F78F00B583B001210F2066
:103D400002F083F94FF4C050009001208DF8040078
:103D500003208DF8050000208DF80600694678489C
:103D600002F03AF84FF4E050009001208DF8040082
:103D700003208DF8050000208DF806006946714883
:103D800002F02AF8FF20009001208DF804000320A3
:103D90008DF8050000208DF8060069466A4802F09B
:103DA0001BF84FF48051674802F07BF84FF48061B4
:103DB000644802F076F84FF40061614802F073F84D
:103DC00007BD80B5FFF7B8FF40F2E731292000F0CA
:103DD00068F84FF480515A4802F065F8142001F059
:103DE0007FFF4FF48051564802F05BF84FF4487063
:103DF00001F076FF4FF47A71544802F0C9FA4FF49B
:103E00000061504802F04DF8FF20FFF7ADFB4FF482
:103E100080514C4802F045F84FF48051484802F078
:103E200040F84FF40061464802F03DF84FF48061DD
:103E3000444802F036F84648FFF7EDFB4548FFF7E7
:103E4000EAFB4548FFF7E7FB4448FFF7E4FB44483B
:103E5000FFF7E1FB4348FFF7DEFB4348FFF7DBFBDF
:103E6000F0234FF4A07200210020FFF726FC01BDD3
:103E700010B50400E4B2002C09D10020FFF7DEFBEE
:103E80001F20FFF7F0FB0020FFF702FC08E00020F6
:103E9000FFF7D4FB0020FFF7E6FB1F20FFF7F8FB3E
:103EA00010BD30B58BB004000D000121042002F0DC
:103EB000DDF80121022002F0C8F8022208212B4877
:103EC00001F0F8FF4FF48070009002208DF804009C
:103ED00003208DF8050000208DF8060001208DF8E4
:103EE00007006946214801F077FF2800ADF8080077
:103EF0000020ADF80A0003940020ADF8100002A9DC
:103F0000124802F0E1F86020ADF814000120ADF88D
:103F100016000020ADF8200005A90C4802F0ACF90D
:103F200008210A4802F04BFA0121084802F003F97F
:103F30000121064802F00DF90BB030BD140C02400F
:103F40000000024000080240000C0240000800404F
:103F5000940200209C020020A4020020AC02002059
:103F6000B4020020BC020020C40200200004024071
:103F70000020C0B2102864DA0021DFF87026C0B239
:103F80000E2303FB00F3D1540521DFF86026C0B2F5
:103F90000E2303FB00F31A4491703221DFF84C2604
:103FA000C0B20E2303FB00F31A44D180DFF83C16A5
:103FB000C0B20E2202FB00F211448978022291FB6A
:103FC000F2F1DFF82826C0B20E2303FB00F31A44F7
:103FD00051700021DFF81426C0B20E2303FB00F35A
:103FE0001A4411720121DFF80426C0B20E2303FB2C
:103FF00000F31A4491720021DFF8F025C0B20E23BD
:1040000003FB00F31A4451720021DFF8E025C0B22F
:104010000E2303FB00F31A44D1723221DFF8CC25C2
:10402000C0B20E2303FB00F31A4411730021DFF822
:10403000BC25C0B20E2303FB00F31A445173401C8D
:1040400097E70320DFF8A41581F835000A20DFF890
:104050009C1581F836000A20DFF8901581F83700AA
:104060000320DFF8881581F86D000A20DFF87C1541
:1040700081F86E000A20DFF8741581F86F000320C4
:10408000DFF8681581F8A5000A20DFF8601581F8CF
:10409000A6000A20DFF8541581F8A7000320DFF8F6
:1040A0004C1581F8DD000A20DFF8401581F8DE00AC
:1040B0000A20DFF8381581F8DF000020DFF830151E
:1040C00008750020DFF8281548750020C0B21428B4
:1040D00006DA0021DFF81825C0B21154401CF5E7BC
:1040E0007047DFF80C15497D14290CDADFF800154C
:1040F000DFF8FC24527D8854DFF8F414497D491C14
:10410000DFF8EC245175704700B583B00121102011
:1041100001F09BFF4FF47060009000208DF80400C8
:1041200003208DF8050002208DF807006946DFF8AE
:10413000C40401F051FE4FF47040009001208DF84E
:10414000040003208DF8050000208DF80600694664
:10415000DFF8A00401F040FE4FF47041DFF8940452
:1041600001F09FFE07BD70B5002400250026FFF773
:10417000CBFF052001F0B4FDDFF8780401F08EFEDE
:10418000001210F00F000400E4B2002C0BD002F07B
:1041900051F9052001F0A4FDDFF8580401F07EFE7E
:1041A00080B2000B0500E01C15FB00F00600F6B223
:1041B000300004281ED005281ED007281ED008284D
:1041C00020D00A2820D00B281AD00E281ED0102864
:1041D00020D0142820D016281AD01C281ED0202821
:1041E00020D0282820D02C281AD038281ED0582893
:1041F0001ED01FE001201EE003201CE006201AE074
:10420000092018E0022016E0052014E0072012E043
:104210000A2010E004200EE00C200CE00D200AE043
:104220000B2008E0102006E0082004E00F2002E048
:104230000E2000E0002070BD10B5FFF794FF0400D1
:10424000E4B2002C00F00C81E4B2112C80F2088161
:104250000120DFF89813E4B20E2202FB04F21144AD
:1042600001F80E0CDFF88403E4B20E2101FB04F127
:10427000084410F80D0CDFF87413E4B20E2202FBB0
:1042800004F2114411F80C1C884212D2DFF85C03CE
:10429000E4B20E2101FB04F1084410F80C0CDFF825
:1042A0004C13E4B20E2202FB04F2114401F80D0C8F
:1042B00063E1CE48E4B20E2101FB04F1084410F89A
:1042C0000D0CCA49E4B20E2202FB04F2114411F8AB
:1042D0000C1CB0EB410F11DAC448E4B20E2101FB13
:1042E00004F1084410F80D0C401CC049E4B20E2241
:1042F00002FB04F2114401F80D0C3EE1BB48E4B2AC
:104300000E2101FB04F1084410F8060C002817D117
:104310000120B649E4B20E2202FB04F2114401F876
:10432000060CB248E4B20E2101FB04F1084410F877
:10433000040C002804D0E4B2A000C0B2FFF7D1FE04
:10434000AA48E4B20E2101FB04F1084430F8080C3D
:10435000002800F08280A548E4B20E2101FB04F1A0
:10436000084430F80A0CA149E4B20E2202FB04F220
:10437000114431F8081C884233D29C48E4B20E2123
:1043800001FB04F1084410F8030C032829D19748D5
:10439000E4B20E2101FB04F1084430F80A0C401C81
:1043A0009249E4B20E2202FB04F2114421F80A0CF5
:1043B0008E48E4B20E2101FB04F1084430F80A0CE7
:1043C0008A49E4B20E2202FB04F2114431F8081CBF
:1043D000884242D1E4B2A000401CC0B2FFF781FE87
:1043E0003BE08248E4B20E2101FB04F1084410F8DE
:1043F000020C002831D07D48E4B20E2101FB04F10B
:10440000084410F8010C401C7849E4B20E2202FB6B
:1044100004F2114401F8010C7448E4B20E2101FBCE
:1044200004F1084410F8010C7049E4B20E2202FBBA
:1044300004F2114411F8021C88420ED300206B498B
:10444000E4B20E2202FB04F2114401F8010CE4B2C2
:10445000A000801CC0B2FFF744FE674804708CE0E7
:10446000E4B2002C40F0898063480078002800F016
:10447000848061480078112880F27F805B485E4923
:1044800009780E225143084410F80C0C57495A4A37
:1044900012780E235A43114411F80D1C884210D291
:1044A0005248554909780E225143084410F80C0C23
:1044B0004E49514A12780E235A43114401F80D0C0B
:1044C00049E04A484C4909780E225143084410F803
:1044D0000D0C002811D04548474909780E22514358
:1044E000084410F80D0C401E4049434A12780E2330
:1044F0005A43114401F80D0C2DE03C483E4909781F
:104500000E225143084410F8060C012823D1002044
:104510003649394A12780E235A43114401F8060CE1
:104520003248354909780E225143084410F8050CE9
:10453000002805D0E4B2A000C01CC0B2FFF7D1FD36
:1045400000202A492C4A12780E235A43114401F8BC
:104550000E0C2948047000202449274A12780E23A3
:104560005A43114421F80A0C00202049224A1278AB
:104570000E235A43114401F8010C10BD0020002104
:104580001B4A127D1A4B5B7D9A420DD2184A184B7A
:104590001B7DD25C042392FBF3F21000144A127DBF
:1045A000521C134B1A751FE0114A127D104B5B7D94
:1045B0009A4203D00E4A127D142A15D1002210000F
:1045C000002211000A000A4B1B7DD2B29A4205D28A
:1045D0000022074BC9B25A54491CF3E70022044B8E
:1045E0001A750022024B5A75C0B27047A8330020DA
:1045F0004C440020001002400803002000B583B0A6
:104600000020DFF8581608700020DFF854160870F4
:104610000020DFF8501608700020DFF84C160870F4
:104620000020DFF8481608700020DFF844160870F4
:104630000120DFF8401608700120DFF83C160870F2
:10464000F0234FF4A07200210020FFF736F800F0AD
:1046500066FA4FF4F0700190DFF8200600905F23B7
:104660005F2223212320FFF71FFB602360222221EA
:104670002220FFF73BFADFF8082665212420FFF708
:104680007FF84FF4F0700190DFF8F80500905F2399
:10469000BE2223218220FFF707FB6023BF222221B5
:1046A0008120FFF723FADFF8E02565218020FFF75E
:1046B00067F84FF4F0700190DFF8D00500905F23A9
:1046C00040F21D122321E120FFF7EEFA60234FF4A0
:1046D0008F722221E020FFF709FADFF8B425652167
:1046E000E020FFF74DF84FF4F0700190DFF8A405DB
:1046F0000090C8235F228C212320FFF7D5FAC9231D
:1047000060228B212220FFF7F1F9DFF88C25CE21E2
:104710002420FFF735F84FF4F0700190DFF87C05A6
:104720000090C823BE228C218220FFF7BDFAC92346
:10473000BD228B218120FFF7D9F9DFF86425CE2136
:104740008020FFF71DF84FF4F0700190DFF854055A
:104750000090C82340F21D128C21E120FFF7A4FA3B
:10476000C9234FF48E728B21E020FFF7BFF9DFF8E9
:104770003825CE21E020FFF703F800F001F807BD4F
:1047800010B5FFF7FBFE0400E4B20C2C10D1DFF8EB
:104790001C050078022807DBDFF810050078401EB2
:1047A000DFF80815087003E00620DFF80015087030
:1047B000E4B2102C11D1DFF8F4040078062807DAEF
:1047C000DFF8E8040078401CDFF8E014087091E09E
:1047D0000120DFF8D81408708CE0E4B2042C0DD16D
:1047E000DFF8C80400780428C0F28480DFF8BC0435
:1047F0000078C01EDFF8B41408707BE0E4B2082C27
:104800000CD1DFF8A8040078042873DADFF89C04E0
:104810000078C01CDFF8941408706BE0E4B20F2C31
:1048200068D1DFF888040078012809D062D3032812
:1048300024D014D305283FD02FD306284BD059E0DD
:104840000120DFF81C1408700020DFF82C14087019
:104850000020DFF820140870FBF796FC5EE10120D1
:10486000DFF8001408700020DFF80C140870002036
:10487000DFF80014087001F00BFE4FE10120DFF8B3
:10488000EC1308700020DFF8F01308700020DFF848
:10489000E413087001F00EFF40E10120DFF8BC13C3
:1048A00008700020DFF8CC1308700020DFF8C81370
:1048B000087004F052FA31E10120DFF8AC130870FF
:1048C0000020DFF8B41308700020DFF8A813087088
:1048D00004F086FF22E10120DFF894130870002025
:1048E000DFF8941308700120DFF88813087004F0D3
:1048F000EDFF13E1DFF8B403007801280CD0C0F01D
:10490000E980032852D02CD3052800F0998072D377
:10491000062800F0BA80DDE00120FFF7A9FAD84AA6
:1049200065212420FEF72CFF0020FFF7A1FAD64ACC
:1049300065218020FEF724FFD54A6521E020FEF79F
:104940001FFFD54ACE212420FEF71AFFD44ACE21DC
:104950008020FEF715FFD44ACE21E020FEF710FF9D
:10496000DCE0C74A65212420FEF70AFF0120FFF79B
:104970007FFAC54A65218020FEF702FF0020FFF77D
:1049800077FAC34A6521E020FEF7FAFEC24ACE213B
:104990002420FEF7F5FEC24ACE218020FEF7F0FE6D
:1049A000C14ACE21E020FEF7EBFEB7E0B44A652114
:1049B0002420FEF7E5FEB44A65218020FEF7E0FEE4
:1049C0000120FFF755FAB24A6521E020FEF7D8FE34
:1049D0000020FFF74DFAB04ACE212420FEF7D0FE8A
:1049E000AF4ACE218020FEF7CBFEAF4ACE21E02099
:1049F000FEF7C6FE92E0A24A65212420FEF7C0FE23
:104A0000A14A65218020FEF7BBFEA14A6521E02076
:104A1000FEF7B6FE0120FFF72BFA9F4ACE21242095
:104A2000FEF7AEFE0020FFF723FA9D4ACE2180203C
:104A3000FEF7A6FE9C4ACE21E020FEF7A1FE6DE027
:104A40008F4A65212420FEF79BFE8F4A6521802036
:104A5000FEF796FE8E4A6521E020FEF791FE8E4A13
:104A6000CE212420FEF78CFE0120FFF701FA8C4AAC
:104A7000CE218020FEF784FE0020FFF7F9F98A4A54
:104A8000CE21E020FEF77CFE48E07D4A652124200F
:104A9000FEF776FE7C4A65218020FEF771FE7C4A97
:104AA0006521E020FEF76CFE7B4ACE212420FEF734
:104AB00067FE7B4ACE218020FEF762FE0120FFF7D1
:104AC000D7F9794ACE21E020FEF75AFE0020FFF701
:104AD000CFF923E00120FFF7CBF9694A65212420B3
:104AE000FEF74EFE0020FFF7C3F9674A65218020DC
:104AF000FEF746FE664A6521E020FEF741FE664A63
:104B0000CE212420FEF73CFE654ACE218020FEF710
:104B100037FE654ACE21E020FEF732FE10BD00B51B
:104B20008FB06348006806F0B1F802000B006149DD
:104B300008A800F0CFFD6048006806F0A7F8020062
:104B40000B005E490BA800F0C5FD5D48C0790090E0
:104B50005B4883795A4842795A4905A800F0BAFD62
:104B60005748C0780090564883785548008810F51B
:104B7000FA62554902A800F0ADFD544A04217020A4
:104B8000FEF7FEFD3C200190514800900C232822A6
:104B900000210420FFF788F83C2001904D48009048
:104BA000182328220C210420FFF77EF818200190FA
:104BB000494800900C23642200215820FFF774F824
:104BC00008AA02212420FEF791FD0BAA0E21242021
:104BD000FEF78CFD05AA0221C420FEF787FD02AA7C
:104BE0000C21BC20FEF782FD1A234FF4A07219217C
:104BF0000020FEF7ADFF14234FF49D7204214FF403
:104C00008E70FEF773FF10234FF48E7208214FF45D
:104C10008D70FEF76BFF122340F2231206214FF432
:104C20008F70FEF795FF12234FF49572062140F224
:104C30002510FEF78DFF122340F2311206214FF4AA
:104C40009670FEF785FF12234FF49C72062140F206
:104C50003310FEF77DFF0FB000BD00003847002085
:104C6000394700203A4700203B4700203C470020BE
:104C70003D4700200A0300203E470020108C010819
:104C80008CB30108F08D010898B30108D08F01089A
:104C9000A4B30108B0910108B0B3010890930108D2
:104CA000BCB3010870950108C8B3010809030020CE
:104CB00018460020E8B5010820460020F0B501089C
:104CC0008C02002028B2010838B20108D4B30108D0
:104CD00028AC010864AC0108D0AF010862B38B07AF
:104CE00008D0521E11F8013B00F8013B00F024806F
:104CF0008B07F6D1830740F0208000BF103A07D31E
:104D000030B4B1E83810103AA0E83810F9D230BC0D
:104D1000530724BFB1E80810A0E8081044BF51F8B9
:104D2000043B40F8043BD20724BF31F8022B20F8A3
:104D3000022B44BF0B7803707047083A07D3B1E8E1
:104D40000810083A40F8043B40F804CBF7D2530768
:104D5000E4E70268531C036011707047002205F0FD
:104D6000BDBF0809010040F10980F446404200F04F
:104D700005F851F000416047010000BF09D0B0FACA
:104D800080F18840C91CC1F58461090501EBD0217F
:104D9000400570472DE9F0412DED068B06000C0013
:104DA0001500601C00FB05F006EBC000D0E9000117
:104DB00031F0004141EC180BB0EE489AF0EE689AE1
:104DC0002700002F24D0601C00FB05F006EBC0007C
:104DD00000EBC700D0E9000131F0004141EC1A0BB3
:104DE00051EC180B53EC1A2B05F092FF03D2B0EEE6
:104DF0004A8AF0EE6A8A51EC1A0B53EC192B05F033
:104E000087FF03D2B0EE4A9AF0EE6A9A7F1ED8E787
:104E100053EC182B51EC190B05F092FFD94ADA4BE1
:104E200006F002F841EC180B2700002F17D4601C85
:104E300000FB05F006EBC00000EBC708601C00FBA0
:104E400005F006EBC00000EBC700D0E9000153EC11
:104E5000182B06F0BBF8C8E900017F1EE5E700202B
:104E6000BDEC068BBDE8F08170B504000D0000209C
:104E70000600AE420BDA320029002000FFF78AFF5D
:104E8000002802D05FF0FF3002E0761CF1E700203E
:104E900070BD2DE9F84F80460C0017007F1E0020E2
:104EA0000500BD4280F28A8000200600BE423ADA48
:104EB000601C00FB05F008EBC00000EBC609601C9D
:104EC00000FB05F008EBC00000EBC600D0E90023B2
:104ED000601C00FB07F008EBC00000EBC700D0E946
:104EE000000105F0A1FF82468B46601C00FB07F025
:104EF00008EBC00000EBC600D0E90023601C00FBFB
:104F000005F008EBC00000EBC700D0E9000105F098
:104F10008BFF02000B005046594606F083F9C9E9A1
:104F20000001761CC2E7601C00FB05F008EBC00026
:104F300000EBC409601C00FB05F008EBC00000EBAF
:104F4000C400D0E90023601C00FB07F008EBC000A0
:104F500000EBC700D0E9000105F066FF82468B46F2
:104F6000601C00FB07F008EBC00000EBC400D0E9B8
:104F70000023601C00FB05F008EBC00000EBC7003D
:104F8000D0E9000105F050FF02000B0050465946E1
:104F900006F048F9C9E90001601C00FB05F008EBC8
:104FA000C00000EBC70200200021C2E900012A0076
:104FB00021004046FFF7EEFE6D1C72E70020BDE8C1
:104FC000F28F70B504000D002E00002E0BD03200C1
:104FD00029002000FFF75DFF002802D05FF0FF30BE
:104FE00002E0761EF1E7002070BD2DE9F84F0400C5
:104FF0000D00904618F101000600AE426EDA18F17D
:1050000001000700BE421EDB681C00FB06F004EB3B
:10501000C00000EBC709681C00FB06F004EBC000F1
:1050200000EBC700D0E90023681C00FB08F004EB8C
:10503000C00000EBC800D0E9000105F0F5FEC9E9A9
:1050400000017F1CDEE7681C00FB06F004EBC000DB
:1050500000EBC509681C00FB06F004EBC00000EB88
:10506000C500D0E90023681C00FB08F004EBC00079
:1050700000EBC800D0E9000105F0D6FE82468B4661
:10508000681C00FB06F004EBC00000EBC800D0E990
:105090000023681C00FB08F004EBC00000EBC50017
:1050A000D0E9000105F0C0FE02000B005046594651
:1050B00006F0B8F8C9E90001681C00FB06F004EB33
:1050C000C00000EBC80200200021C2E9000132004C
:1050D00029002000FFF75EFE761C8EE70020BDE869
:1050E000F28FF8B504000D0000200600AE420BDA86
:1050F000320029002000FFF778FF002802D05FF07F
:10510000FF303EE0761CF1E700200600AE4237DAC1
:10511000681C00FB06F004EBC00000EBC600D0E901
:1051200000230020002106F03DF927D0681C00FB79
:1051300006F004EBC00000EBC507681C00FB06F09E
:1051400004EBC00000EBC500D0E900016A1C02FBC3
:1051500006F204EBC20202EBC602D2E9002305F01C
:1051600035FFC7E90001681C00FB06F004EBC00036
:1051700000EBC6000022054BC0E90023761CC5E702
:105180000020F2BDF168E388B5F8D43E0000F03F9E
:1051900038B504000D0029002000FFF765FE290046
:1051A0002000FFF70EFF002802D05FF0FF3009E07B
:1051B00029002000FFF795FF002802D05FF0FF30A4
:1051C00000E0002032BD2DE9F84F040089469346E7
:1051D00098460A9D00200700AF4232DA002000FB0B
:1051E00005F0204400EBC70200200021C2E90001C5
:1051F00000200600464522DA681ED7EB4000FFF784
:10520000B1FD41EC110B09EBC60090ED000B06F06F
:105210004BFB002000FB05F0204400EBC70A0020F8
:1052200000FB05F0204400EBC700D0E9002351EC5F
:10523000100B05F085FDCAE90001761CDAE77F1C3A
:10524000CAE701200700AF4234DA681C00FB07F010
:1052500004EBC00000EBC5020020002142E902017E
:1052600000200600464523DA681EC01BFFF77AFDC2
:1052700041EC110B09EBC60090ED000B06F014FB9E
:10528000681C00FB07F004EBC00000EBC50A681CBB
:1052900000FB07F004EBC00000EBC50050E902235F
:1052A00051EC100B05F04CFD4AE90201761CD9E7E0
:1052B0007F1CC8E700200700AF423ADA681C00FBF9
:1052C00007F004EBC00000EBC50200200021C2E99A
:1052D000000100200600464529DA681EC01BFFF7C2
:1052E00041FD41EC110B09EBC60090ED000B06F0FF
:1052F000DBFA681C00FB07F004EBC00000EBC50AFA
:105300000BEBC600D0E9002351EC100B05F08CFD2F
:105310006A1C02FB07F204EBC20202EBC502D2E9EF
:10532000002305F00DFDCAE90001761CD3E77F1CC0
:10533000C2E701200700AF421ADA00200600681E0B
:10534000864213DA681C00FB07F004EBC00000EB98
:10535000C600791E6A1C514304EBC10101EBC60172
:1053600091ED020B80ED000B761CE8E77F1CE2E775
:105370000020BDE8F28F2DE9F84304000D0016006F
:105380001F00DDF82080781C00FB07F0C00007F04C
:1053900039FB8146009733002A0021004846FFF779
:1053A00012FF39004846FFF7F3FE00200600BE4218
:1053B0000EDA781C00FB06F009EBC00000EBC7001A
:1053C00090ED000B88ED000B761C18F10808EEE755
:1053D000484607F072FC0020BDE8F28380B5DFF894
:1053E000E402006830F04050DFF8D8120860DFF8BF
:1053F000D402006850F08050DFF8C8120860012025
:10540000DFF8C41208600120DFF8C0120860012034
:1054100000F079FB0020DFF8B0120860012000F0F6
:1054200072FB0020DFF8A412086001BD80B5DFF830
:105430009402006830F04050DFF888120860DFF80E
:105440008402006850F080509E49086000209E4908
:10545000086001209D490860012000F054FB0120F4
:1054600099490860012000F04EFB01BD10B5040011
:105470009448006830F040509249086091480068B4
:1054800050F080508F490860E4B2012C02D1012015
:105490008D490860E4B2002C02D100208A490860DE
:1054A00001208A490860012000F02DFB0020874977
:1054B0000860012000F027FB10BD10B5002400207B
:1054C000824908607F48006830F040507D4908609C
:1054D0007C4800687B49086001207C490860012005
:1054E00000F011FB7A480068002806D0641CA4B2C2
:1054F000B4F57A7FF6DD012006E0002073490860EC
:10550000012000F000FB002010BD38B50400082584
:105510006C48006830F040506A490860694800688B
:1055200050F08050674908602800451EC0B200282E
:1055300016D0002065490860012000F0E4FA20063A
:1055400003D501206049086002E000205E49086040
:10555000640001205D490860012000F0D4FAE3E70F
:10556000FFF7ABFF31BD38B50824002501205649AF
:1055700008605448006830F0405052490860514873
:105580000068504908602000441EC0B2002812D0B4
:105590006D0000204D490860012000F0B4FA0120A0
:1055A0004A490860012000F0AEFA49480068002826
:1055B000E9D06D1CE7E70020444908602800C0B22C
:1055C00032BD2DE9F04104000D0016005FF0000827
:1055D000EFF31080804672B6200080B2000A070008
:1055E000FFF7FCFEAE20FFF790FF3800C0B2FFF7D8
:1055F0008CFF2000C0B2FFF788FF3000461E80B24B
:10560000002804D02878FFF780FF6D1CF5E7FFF72E
:105610000DFF88F31088BDE8F0812DE9F04104000A
:105620000D0016005FF00008EFF31080804672B6A0
:10563000200080B2000A0700FFF7D0FEAE20FFF77F
:1056400064FF3800C0B2FFF760FF2000C0B2FFF770
:105650005CFFFFF7C3FEAF20FFF757FFB6B2022E85
:1056600008DBFFF780FF28700020FFF7FFFE761EA3
:105670006D1CF3E7FFF777FF28700120FFF7F6FEB8
:10568000FFF7D4FE88F31088BDE8F08100B583B041
:105690000121082000F0D9FC4FF4C0400090012007
:1056A0008DF8040003208DF8050000208DF8060019
:1056B00001208DF807006946024800F08DFB07BD08
:1056C00000000000000C0240B8824142B482414216
:1056D000388241420CB41CB5044604A801900A4625
:1056E000009401AB694607487844183007F076FD0E
:1056F000009A0021117000285CBF0098001B16BCA6
:105700005DF80CFB4FF6FFFF10B401000020C9B29A
:105710000A22C9B20A2391FBF3F391FBF2F402FBD4
:10572000141252EA03121000C0B210BC704710B439
:10573000020000201100C9B20909C9B20A23D2B27D
:1057400012F00F0403FB01410800C0B210BC704707
:1057500000B583B00121122000F077FC03200090F7
:1057600001208DF8040003208DF8050000208DF83D
:10577000060001208DF807006946C64800F02CFBA2
:105780004FF40070009001208DF8040003208DF884
:10579000050000208DF8060001208DF807006946FD
:1057A000BD4800F019FB07BD70B500240025B948BD
:1057B000006880088000B7490860B6480068B549AD
:1057C0000860052008F01CFE0026EFF3108006009C
:1057D00072B600200400E4B2082C15DAEDB26D08B0
:1057E000AE480068012801D155F080050120AC4980
:1057F0000860022008F004FE0020A9490860022089
:1058000008F0FEFD641CE6E786F310882800C0B2AD
:1058100070BDF8B50400002526009E480068800889
:1058200080009C4908609B48006850F0010099493D
:10583000086000209A490860022008F0E1FD002776
:10584000EFF31080070072B600200500EDB2082DBE
:1058500014DAF6B216F0010092490860022008F04E
:10586000CFFD01208E490860022008F0C9FD00200C
:105870008B490860F6B276086D1CE7E787F310885D
:10588000F1BD38B504000D000020874908600020F4
:10589000834908600120844908602000C0B2FFF7F6
:1058A000B8FF2800C0B2FFF7B4FF01207C490860B0
:1058B00000207D49086031BD80B5FFF749FF002118
:1058C0008E20FFF7DEFF5521FC20FFF7DAFF774837
:1058D000C079FFF719FF50F00101C9B28020FFF72E
:1058E000D0FF72488079FFF70FFF0100C9B2822014
:1058F000FFF7C7FF6D484079FFF706FF0100C9B207
:105900008420FFF7BEFF6948C078FFF7FDFE010065
:10591000C9B28620FFF7B5FF64488078FFF7F4FE30
:105920000100C9B28820FFF7ACFF60480079FFF79B
:10593000EBFE0100C9B28A20FFF7A3FF5B48008895
:10594000C0B2FFF7E1FE0100C9B28C20FFF799FF5A
:1059500080218E20FFF795FF01BD38B5040000259A
:1059600000205149086000204D49086001204E493F
:10597000086054F00100C0B2FFF74BFFFFF714FFBF
:1059800005000120464908600020474908602800BA
:10599000C0B232BD10B5040000218E20FFF771FFA8
:1059A000E079FFF7B1FE50F00101C9B28020FFF7A6
:1059B00068FFA079FFF7A8FE0100C9B28220FFF7B7
:1059C00060FF6079FFF7A0FE0100C9B28420FFF7F5
:1059D00058FFE078FFF798FE0100C9B28620FFF774
:1059E00050FFA078FFF790FE0100C9B28820FFF7B2
:1059F00048FF2079FFF788FE0100C9B28A20FFF72F
:105A000040FF2088C0B2FFF77FFE0100C9B28C20A2
:105A1000FFF737FF80218E20FFF733FF10BD80B5E1
:105A20008020FFF79AFFC0B2FFF781FE1F49C871BF
:105A30008220FFF792FFC0B2FFF779FE1B49887101
:105A40008420FFF78AFFC0B2FFF771FE1749487143
:105A50008620FFF782FFC0B2FFF769FE1349C870C6
:105A60008820FFF77AFFC0B2FFF761FE0F49887008
:105A70008A20FFF772FFC0B2FFF759FE0B49087189
:105A80008C20FFF76AFFC0B2FFF751FE074908807C
:105A900001BD00000010024000040240000242422A
:105AA000A482404280024242840242428C02002090
:105AB00010B5FD20FFF751FF0400E4B2552C01D1D1
:105AC000002000E0012010BD00BF00BF00BF00BFEC
:105AD00000BF00BF00BF00BF00BF00BF00BF00BFCE
